:100000000C945E000C9486000C9486000C94860080
:100010000C9486000C9486000C9486000C94860048
:100020000C9486000C9486000C9486000C94860038
:100030000C9486000C9486000C9486000C94860028
:100040000C94F8020C9486000C94C6020C94A00246
:100050000C9486000C9486000C9486000C94860008
:100060000C9486000C9486000000000024002700F9
:100070002A0000000000250028002B0004040404CE
:100080000404040402020202020203030303030342
:10009000010204081020408001020408102001021F
:1000A00004081020000000080002010000030407FB
:1000B00000000000000000004203D60511241FBE0E
:1000C000CFEFD8E0DEBFCDBF21E0ACE3B1E001C0AF
:1000D0001D92A63FB207E1F711E0A0E0B1E0EAE42B
:1000E000F1E102C005900D92AC33B107D9F710E0F1
:1000F000CDE5D0E004C02197FE010E948806CC35F2
:10010000D107C9F70E9476030C9498080C9400005C
:10011000E1EBF0E02491EDE9F0E09491E9E8F0E022
:10012000E491EE23C9F0222339F0233001F1A8F441
:10013000213019F1223029F1F0E0EE0FFF1FEE58C7
:10014000FF4FA591B4912FB7F894EC91811126C07F
:1001500090959E239C932FBF08952730A9F02830B7
:10016000C9F0243049F7209180002F7D03C02091F1
:1001700080002F7720938000DFCF24B52F7724BD18
:10018000DBCF24B52F7DFBCF2091B0002F772093BC
:10019000B000D2CF2091B0002F7DF9CF9E2BDACFC7
:1001A000AF92BF92CF92DF92EF92FF920F931F9385
:1001B000CF93DF936C017B018B01040F151FEB01C3
:1001C0005E01AE18BF08C017D10759F06991D6017A
:1001D000ED91FC910190F081E02DC6010995892BEC
:1001E00079F7C501DF91CF911F910F91FF90EF90AB
:1001F000DF90CF90BF90AF900895FC01538D448D58
:10020000252F30E0842F90E0821B930B541710F0C1
:10021000CF96089501970895FC01918D828D9817CE
:1002200061F0A28DAE0FBF2FB11D5D968C91928DA6
:100230009F5F9F73928F90E008958FEF9FEF0895D7
:10024000FC01918D828D981731F0828DE80FF11DA0
:10025000858D90E008958FEF9FEF0895FC01918DBB
:10026000228D892F90E0805C9F4F821B91098F73B4
:100270009927089589E491E00E942E0121E0892BBD
:1002800009F420E0822F0895FC01A48DA80FB92F56
:10029000B11DA35ABF4F2C91848D90E001968F73AE
:1002A0009927848FA689B7892C93A089B1898C91CD
:1002B000837080648C93938D848D981306C002881C
:1002C000F389E02D80818F7D80830895EF92FF92E6
:1002D0000F931F93CF93DF93EC0181E0888F9B8D69
:1002E0008C8D98131AC0E889F989808185FF15C023
:1002F0009FB7F894EE89FF896083E889F989808146
:100300008370806480839FBF81E090E0DF91CF9114
:100310001F910F91FF90EF900895F62E0B8D10E036
:100320000F5F1F4F0F731127E02E8C8D8E110CC0A5
:100330000FB607FCFACFE889F989808185FFF5CFF0
:10034000CE010E944401F1CFEB8DEC0FFD2FF11D8A
:10035000E35AFF4FF0829FB7F8940B8FEA89FB892D
:1003600080818062CFCFCF93DF93EC01888D88238B
:10037000B9F0AA89BB89E889F9898C9185FD03C008
:10038000808186FD0DC00FB607FCF7CF8C9185FFED
:10039000F2CF808185FFEDCFCE010E944401E9CFED
:1003A000DF91CF9108953FB7F894809141019091EA
:1003B0004201A0914301B091440126B5A89B05C01C
:1003C0002F3F19F00196A11DB11D3FBFBA2FA92FD4
:1003D000982F8827BC01CD01620F711D811D911DD1
:1003E00042E0660F771F881F991F4A95D1F708953D
:1003F000FC0101900020E9F73197AF01481B590B30
:10040000BC0189E491E00C94D0000F931F93CF932B
:10041000DF93EC0188819981009759F02A813B8113
:100420002617370730F081E0DF91CF911F910F91B0
:1004300008958B016F5F7F4F0E94B307009759F0BB
:10044000998388831B830A832C813D81232B59F751
:10045000FC011082E8CF80E0E7CFCF93DF93EC017F
:10046000198218821B821A821D821C8270E060E051
:100470000E9405022881398181110FC021153105A3
:1004800019F0C9010E942A07198218821D821C8254
:100490001B821A82DF91CF9108951D821C826AE32C
:1004A00071E0C901DF91CF910C948208FF920F9304
:1004B0001F93CF93DF9300D0CDB7DEB7FF24F39423
:1004C00089E491E00E942E01892B61F189E491E099
:1004D0000E940C018A3019F4F0924801F1CF89830F
:1004E0001A820091F0011091F1010F5F1F4FB801C6
:1004F0008CEE91E00E940502882311F32091EC011B
:100500003091ED018091F0019091F101BE016F5F9A
:100510007F4F820F931F0E9482081093F101009376
:10052000F001CECF0F900F90DF91CF911F910F91DF
:10053000FF9008950E943A0181110C94560208958B
:100540001F920F920FB60F9211242F933F934F9348
:100550005F936F937F938F939F93AF93BF93EF932B
:10056000FF9389E491E00E944401FF91EF91BF91D4
:10057000AF919F918F917F916F915F914F913F913B
:100580002F910F900FBE0F901F9018951F920F92F2
:100590000FB60F9211242F938F939F93EF93FF9396
:1005A000E0915901F0915A018081E0915F01F09151
:1005B000600182FD1BC09081809162018F5F8F730B
:1005C00020916301821741F0E0916201F0E0E75B66
:1005D000FE4F958F80936201FF91EF919F918F91D4
:1005E0002F910F900FBE0F901F9018958081F4CF20
:1005F0001F920F920FB60F9211242F933F938F9358
:100600009F93AF93BF9380913D0190913E01A09144
:100610003F01B091400130913C0123E0230F2D3781
:1006200058F50196A11DB11D20933C0180933D0119
:1006300090933E01A0933F01B0934001809141010E
:1006400090914201A0914301B09144010196A11DF6
:10065000B11D8093410190934201A0934301B09357
:100660004401BF91AF919F918F913F912F910F9036
:100670000FBE0F901F90189526E8230F0296A11D1C
:10068000B11DD2CFE9E4F1E01382128288EE93E04B
:10069000A0E0B0E084839583A683B7838CE091E0EB
:1006A0009183808385EC90E09587848784EC90E04B
:1006B0009787868780EC90E0918B808B81EC90E02F
:1006C000938B828B82EC90E0958B848B86EC90E010
:1006D000978B868B118E128E138E148E8CEE91E07A
:1006E0000E942D0286EE91E00C942D02CF93DF93B1
:1006F000CDB7DEB7A1970FB6F894DEBF0FBECDBF62
:10070000789484B5826084BD84B5816084BD85B5EC
:10071000826085BD85B5816085BD80916E008160F8
:1007200080936E001092810080918100826080939E
:1007300081008091810081608093810080918000A0
:100740008160809380008091B10084608093B100CB
:100750008091B00081608093B00080917A008460C5
:1007600080937A0080917A00826080937A008091F1
:100770007A00816080937A0080917A00806880930B
:100780007A001092C100EDE9F0E02491E9E8F0E090
:100790008491882399F090E0880F991FFC01E85913
:1007A000FF4FA591B491FC01EE58FF4F85919491B4
:1007B0008FB7F894EC91E22BEC938FBF80E00E940E
:1007C0008800EEE9F0E02491EAE8F0E084918823E3
:1007D000C9F090E0880F991FFC01E859FF4F45913F
:1007E0005491FC01EE58FF4FA591B4919FB7F89436
:1007F000FA0180812095822380838C91E22FE82367
:10080000EC939FBFE0915901F0915A0182E08083FF
:10081000E0915501F09156011082E0915701F0915D
:1008200058018FEC808310926101E0915D01F0919D
:100830005E0186E08083E0915B01F0915C01808144
:1008400080618083E0915B01F0915C018081886030
:100850008083E0915B01F0915C01808180688083FE
:10086000E0915B01F0915C0180818F7D808380E469
:10087000382E9AE0492E512C612C712C222423947D
:1008800080914801882309F4AAC0C090EC01D0905F
:10089000ED01C114D10449F00091F0011091F10172
:1008A00076010115110509F004C18091F0019091C4
:1008B000F101892B79F06AE171E08091EC0190916E
:1008C000ED010E947908892B29F481E00E948800BB
:1008D000209247018091F0019091F101892B89F0DC
:1008E0006EE171E08091EC019091ED010E94790838
:1008F000892B39F4109247012092460180E00E9432
:1009000088004091F0015091F1014115510531F0FD
:10091000E091EC01F091ED01309721F41092450146
:10092000E5E4F1E080818335D1F541155105D1F041
:100930008091EC019091ED01415051095093F101EA
:100940004093F001BC016F5F7F4F0E948908E091E6
:10095000EC01F091ED018091F0019091F101E80F2F
:10096000F91F10828091EC019091ED01009709F43C
:10097000DCC00E94E7057093010160930001672BC2
:1009800071F483E291E00E94F80188E391E00E9413
:10099000F80189E491E00E94B3011092470170E0F0
:1009A00060E08CEE91E00E9405022091EC01309114
:1009B000ED018111BEC02115310519F0C9010E9458
:1009C0002A071092ED011092EC011092F1011092A1
:1009D000F0011092EF011092EE0110924801809107
:1009E0004701882309F45CC080914601811158C0F9
:1009F00030927C0080917A00806480937A008091AC
:100A00007A0086FDFCCF909178008091790089274B
:100A1000982789276C01092E000CEE08FF0897FF24
:100A200092C06DE289E491E00E946601222733279B
:100A3000A9012C193D094E095F0919A28E010F5D0C
:100A40001F4FCA01B901A30192010E946606605DB1
:100A5000F80162938F01211531054105510589F790
:100A60000115110519F0C8010E94F80188E391E011
:100A70000E94F80189E491E00E94B301C090000156
:100A8000D09001010D2C000CEE08FF080E94D3014C
:100A90004B015C01C114D104E104F10409F07AC0F6
:100AA0000E943A01882309F4EBCE0E945602E8CE58
:100AB00075015701FFEFAF1ABF0AF7018081082EB9
:100AC000000C990B0E942306892B91F70150110904
:100AD0000C0D1D1DF8018081082E000C990B0E9441
:100AE0002306892B31F00E151F0518F0015011094E
:100AF000F1CFA8014F5F5F4F4E195F095093F1018D
:100B00004093F001CE14DF0420F4B701C6010E9427
:100B10007008E091EC01F091ED018091F00190916D
:100B2000F101E80FF91F1082C0CE60E070E0CB0148
:100B300022CF1092F1011092F0016AE371E0C90135
:100B40000E9482084ACFA701960119A28E010F5D6B
:100B50001F4FCA01B901A30192010E946606605DA0
:100B6000F80162938F01211531054105510589F77F
:100B700077CFF1E0CF1AD108E108F10828EE820E14
:100B800023E0921EA11CB11CC114D104E104F104A4
:100B900009F480CF0E94D301681979098A099B0959
:100BA000683E73408105910520F774CF8091E6017E
:100BB0009091E701009711F00E942A078091EC01C3
:100BC0009091ED01009711F00C942A0708951F935E
:100BD000FC0199278827BC01E89411911032E9F3B0
:100BE000193010F01E30C8F31B3251F01D3249F499
:100BF000689406C00E940E06610F711D811D911D33
:100C0000119110531A30B0F33EF490958095709581
:100C100061957F4F8F4F9F4F1F910895592F482FF8
:100C2000372F262F660F771F881F991F660F771F94
:100C3000881F991F620F731F841F951F660F771FF0
:100C4000881F991F089591110C942C06803219F079
:100C500089508550C8F708959927882708952F92BD
:100C60003F924F925F926F927F928F929F92AF923C
:100C7000BF92CF92DF92EF92FF920F931F93CF9389
:100C8000DF93CDB7DEB7CA1BDB0B0FB6F894DEBF20
:100C90000FBECDBF09942A88398848885F846E8446
:100CA0007D848C849B84AA84B984C884DF80EE8090
:100CB000FD800C811B81AA81B981CE0FD11D0FB699
:100CC000F894DEBF0FBECDBFED010895A1E21A2E4C
:100CD000AA1BBB1BFD010DC0AA1FBB1FEE1FFF1FE0
:100CE000A217B307E407F50720F0A21BB30BE40B30
:100CF000F50B661F771F881F991F1A9469F7609577
:100D00007095809590959B01AC01BD01CF01089530
:100D1000EE0FFF1F0590F491E02D09940F931F93A0
:100D2000CF93DF938230910510F482E090E0E09160
:100D3000F401F091F50130E020E0B0E0A0E0309760
:100D400099F42115310509F44AC0281B390B2430C8
:100D50003105D8F58A819B816115710589F1FB0107
:100D600093838283FE0111C04081518102811381EE
:100D700048175907E0F04817590799F4109761F0A0
:100D800012960C93129713961C933296CF01DF9113
:100D9000CF911F910F9108950093F4011093F501E5
:100DA000F4CF2115310551F04217530738F0A9014E
:100DB000DB019A01BD01DF01F801C1CFEF01F9CFDD
:100DC0009093F5018093F401CDCFFE01E20FF31F64
:100DD000819391932250310939832883D7CF209171
:100DE000F2013091F301232B41F420910401309161
:100DF00005013093F3012093F2012091020130911B
:100E000003012115310541F42DB73EB7409106018C
:100E100050910701241B350BE091F201F091F30191
:100E2000E217F307A0F42E1B3F0B2817390778F0C1
:100E3000AC014E5F5F4F2417350748F04E0F5F1F20
:100E40005093F3014093F201819391939FCFF0E08F
:100E5000E0E09CCFCF93DF930097E9F0FC0132975D
:100E600013821282A091F401B091F501ED0130E0FE
:100E700020E01097A1F420813181820F931F2091EF
:100E8000F2013091F3012817390709F061C0F0939E
:100E9000F301E093F201DF91CF910895EA01CE17BB
:100EA000DF07E8F54A815B819E0141155105B1F7E5
:100EB000E901FB83EA8349915991C40FD51FEC17CF
:100EC000FD0761F4808191810296840F951FE901ED
:100ED00099838883828193819B838A83F0E0E0E019
:100EE00012968D919C9113970097B9F52D913C9195
:100EF0001197CD010296820F931F2091F20130913C
:100F0000F3012817390739F6309751F51092F5019A
:100F10001092F401B093F301A093F201BCCFD383FC
:100F2000C28340815181840F951FC817D90761F48E
:100F30004E5F5F4F88819981480F591F51834083CD
:100F40008A819B81938382832115310509F0B0CF7B
:100F5000F093F501E093F4019ECFFD01DC01C0CFD9
:100F600013821282D7CFB0E0A0E0E9EBF7E00C9457
:100F700031068C01009751F4CB010E948E068C0142
:100F8000C801CDB7DEB7E0E10C944D06FC01E60FD9
:100F9000F71F9C0122503109E217F30708F49DC0A6
:100FA000D901CD91DC911197C617D70798F0C530BC
:100FB000D10530F3CE0104978617970708F3C61BB7
:100FC000D70B2297C193D1936D937C93CF010E944D
:100FD0002A07D6CF5B01AC1ABD0A4C018C0E9D1EB0
:100FE000A091F401B091F501512C412CF12CE12C90
:100FF000109731F58091F2019091F30188159905D0
:1010000009F05CC04616570608F058C080910201EE
:1010100090910301009741F48DB79EB7409106016E
:1010200050910701841B950BE817F90708F055C08C
:10103000F093F301E093F201F90171836083A0CF93
:101040008D919C91119712966C90129713967C90AB
:101050001397A815B90559F56C0142E0C40ED11CCF
:10106000CA14DB0420F1AC014A195B09DA011296BB
:10107000159780F06282738251834083D9016D930A
:101080007C93E114F10471F0D7011396FC93EE9375
:10109000129776CF22968C0F9D1FF9019183808342
:1010A000F301EFCFF093F501E093F40169CF481617
:1010B000590608F42C017D01D3019ACFCB010E947F
:1010C0008E067C01009749F0AE01B8010E947008BD
:1010D000C8010E942A07870153CF10E000E050CFDB
:1010E000FB01DC0102C001900D9241505040D8F745
:1010F0000895FB01DC018D91019080190110D9F355
:10110000990B0895FB01DC0101900D920020E1F79D
:101110000895FB01DC014150504048F001900D92D0
:101120000020C9F701C01D9241505040E0F70895DA
:1011300010E0CDE5D0E004C0FE010E9488062196B3
:0A114000CE35D107C9F7F894FFCFB0
:10114A00E8030000F6018000000000006601D000FC
:10115A00FD00B3012E010C012001244F6E00244F23
:10116A0066660024496E76616C69642073616D70ED
:0C117A006C652074696D65000D0A0000B2
:00000001FF
